:1000000003308A00742B0000D02BCD1E4F234610E6
:1000100020102000D02BCD1EB236731637182500C5
:100020002F30840083130008031923280230F800BE
:10003000F701F70B1928F80B18289730F700F70B82
:100040001F28800B1628080036182828081229288F
:100050000816831608128312B61830288812312821
:1000600088168316881283123619382808133928FF
:100070000817831608138312B619402888134128DD
:100080008817831688130000831288158316881139
:1000900049284A2883128811831688118312080080
:1000A000B7018316081600308312081A0130B7040E
:1000B0008316881600308312881A0130F700031067
:1000C000F70D7708B7048316081700308312081B52
:1000D0000130F700F70DF70DFC30F7057708B7048E
:1000E0008316881700308312881B0130F700F70D44
:1000F000F70DF70DF830F7057708B7043708F80063
:10010000080083168811881008118312881083163E
:100110008810081688160817881783120815831682
:1001200008110000831288158316881100008312BD
:1001300050207808B60088118316881100008312B9
:10014000881583168811A428831250207808B500DA
:1001500088118316881108128812081388138312D5
:10016000360EF700F030F70577083504F800780808
:10017000B500B51FBD2883168928B308031DC22802
:100180008810C32888148316881000008312081171
:1001900083160811000083128811831688118312B8
:1001A000340EB5000F30B5053508B60024203408EC
:1001B0000F39B500B600242008002830A6000C3006
:1001C000A7000130A8000630A90088118316881105
:1001D0008312881083168810831208118316081161
:1001E00008128812081388138811881008110F301C
:1001F0008312AF0010200130A5002508033C031C2A
:1002000009290330B60024200530AF001020A50ACC
:10021000FD280230B60024200530AF001020A501D3
:100220002508033C031C202926302507840083135E
:100230000008AA00B3012A08B4008120A50A1029E9
:100240008A110A129E2B8E30F7002808F800270822
:10025000F900FA01F808031D37297908F800F901B7
:100260000830F702F808031D3729F7013F2903106A
:10027000F81B3E29F90DF80DF7033729F8138A11F9
:100280000A12E22B27080319072AB3002B080319C7
:10029000072AB302031C51297F30B3070318072A2A
:1002A00057298130B302031C072A0319072A330890
:1002B000F700F801F901FA01B2012808B100B117FD
:1002C0002908B0002A08AF001930B3002E08AF0289
:1002D00003187A290130B00203187A29B1020318F1
:1002E0007A29B20203187A29B20AB10AB00A2E0892
:1002F000AF07AC292D08B002031895290130B102CF
:1003000003189529B20203189529B20AB10A2D08DB
:10031000B0072E08AF07031CAC29B00A031DAC2997
:10032000B10A031DAC29B20AAC292C088038B102ED
:100330000318AB290130B2020318AB29B20A2C080A
:100340008038B1072D08B007031C8929B10A031DA5
:100350008929B20A89297A14B30BAF29BA29031063
:10036000AF0DB00DB10DB20D0310FA0DF90DF80D72
:10037000B40D6629341CC2290310F80CF90CFA0CD0
:10038000B40CC529F7030319072AB41BEE2903107F
:10039000AF0DB00DB10DB20D2E08AF020318DA2962
:1003A0000130B0020318DA29B1020318DA29B202C7
:1003B000031CFD292D08B0020318E5290130B10204
:1003C0000318E529B202031CFD292C088038B1026C
:1003D0000318EE290130B202031CFD29FA0A031D9D
:1003E000FD29F90A031DFD29F80A031DFD29F70A55
:1003F0000319072AF80CF90CFA0C2808B3002C088A
:10040000B306B31F052AF8170B2AF8130B2AF701B6
:10041000F801F901FA018A110A12F32B8E30F70064
:100420002508F7022608F9002708F800F917F70849
:100430000319252A0310F908031D212AF8080319B6
:10044000252AF90CF80CF70B1A2AA61F2C2AF809F2
:10045000F909F80A0319F90A8A110A12FC2B300B60
:10046000322A352A4030B100362AB10101302F023C
:10047000B10731088038B200B3013208B4008120DE
:1004800008002E08073A03194F2A0B3A0319542A79
:10049000063A03195C2A023A0319622A672A0130D4
:1004A000AF00B0002F226C2AB3010130B4008120CC
:1004B0000230AF0010206C2A0130AF000230B000D3
:1004C0002F226C2AB3011030B40081206C2A013035
:1004D000B3002E08B40081200800AD010408AC0070
:1004E0002D10831B2D14260EF038A800A807E23E1D
:1004F000A900323EAB0026080F39A907A907AB07B0
:10050000E93EAA00AA07AA07250E0F39AA07AB07DA
:10051000AA0DAB0DAB09AB0D25080F39AB07A80D24
:100520000730A7000A30AB07AA03031C932AAA07C7
:10053000A903031C972AA907A803031C9B2AA80741
:10054000A703031C9F2A27308400831307302C0540
:100550002C1384072B30040203192C170008F70012
:10056000031DBA2A2C1BBA2A2C1ACC2AAC19BA2A77
:100570002030BD2AAC152C123030F707A601040834
:10058000A5002610831B26147708AE0041222508FB
:100590008400831326188317840A2C1FAA2A8A1121
:1005A0000A12112C2808F80127020318DA2A270852
:1005B000F700E62AF7010830A900A70DF70D280873
:1005C00077020318F700F80DA90BDD2A0800780858
:1005D0002508A7006430A800D2227708A500780873
:1005E0003030031DFA2AA61C012BA619012B261A4E
:1005F0002030FD2AA61126122614F8077808AE002E
:1006000041222508A7000A30A800D2227708A500B9
:1006100078083030031D122BA619162B261C162B1A
:10062000261A2030F8077808AE0041223030A5079E
:100630002508AE0041228A110A12392C0B08A500A8
:100640008B13831603178C170C1400000000831201
:100650000313A51B8B1703170C087F390319722B83
:100660000313A50003170D080313A60003170F08B3
:100670000313A7002508AE004122260803178D00AA
:100680000313270803178F0003130B08A8008B130D
:10069000831603178C170C14000000008312031339
:1006A000A81B8B1703170C0D0E0D7F390319722B26
:1006B0000313A50003170D080313A60003170F0863
:1006C0000313A7002508AE004122260803178D005A
:1006D0000313270803178F008D0A03198F0A0313CA
:1006E0001E2B03170313080003081F398300713002
:1006F00083168F000F0883122010A301FF30A4007F
:10070000831603170908C039890003131F129F12AB
:100710000030031788008312870188018901831341
:1007200000308316031387008312A4008316880009
:1007300009148914091589158312DD281F179F17BD
:1007400083169F1783121F14831603170908C039D5
:10075000890003131F129F122030031788001430E2
:10076000F800831203131F08C33978049F00073071
:1007700090008E018F018E010030F8000638920043
:10078000F9308316920083122411240883168700FF
:10079000831207110C30970083169B019C010130D6
:1007A0009D00831291019F149F18D42B1E08FA00FC
:1007B00083161E088312A5001E08A600A80025089F
:1007C000A70023297A08AA007908A9007808A800B8
:1007D0007708A700AA30AE00F130AD000230AC00BF
:1007E0008030AB0042297A08A8007908A700780871
:1007F000A6007708A5000E2A7908A2007808A100B3
:100800000130AF00B0002F225430AE0041223D3005
:10081000AE0041220B3084002208A6002108A5006A
:100820006D2ADF30AE0041224330AE0041220F0876
:10083000FA000E08F7000F087A02031D172C77083C
:10084000A3002308183C0318292CA3018E018F0153
:100850008E010A30AF000130B0002F225030AE00C0
:1008600041223D30AE0041222308A5000130A60000
:10087000E72A83160915831209194D2C0A30AF0097
:10088000102083160915831209194D2C0130A0067A
:10089000831609158312091D482C20185E2CF03090
:1008A00097050130AF000230B0002F22043003174B
:1008B0008D0000308F0003131E237D2C241124088B
:1008C00083168700831207110C30970083169B0153
:1008D0009C0101309D00AF30831295001708CF397D
:1008E00097000130AF000230B0002F220A3003170A
:0E08F0008D0000308F0003131E23D32B6300F6
:04400E00E52FFF3F5C
:00000001FF
;PIC16F887
;CRC=01CA  CREATED="05-Dec-23 22:35"
