:1000000000308A007B280000FF00030E8301A1005E
:100010000A08A0008A010408A2007708A300780853
:10002000A4007908A5007A08A600831383128C30F7
:100030008400801E1D288C1A2E2822088400230884
:10004000F7002408F8002508F9002608FA0020081F
:100050008A00210E8300FF0E7F0E09008A110A120A
:100060003F280A108A100A118207C034F934A434D8
:10007000B034993492348234F834803490348C1E05
:100080003F281A08A7003030A70227083120AE0009
:100090008316880183122E0888008C128C128A1114
:1000A0000A121D281030AD00F701FA01AA0CA90CA4
:1000B000031C60282B08F7070318FA0A2C08FA0714
:1000C000FA0CF70CF90CF80CAD0B562808002C3084
:1000D00084008313000803197A280630F800F7011A
:1000E000F70B7028F80B6F287B30F700F70B76289A
:1000F000800B6D28080003081F398300831603173F
:10010000871511300313990004309A00A630980027
:10011000903083129800A701FF30A80083160317C0
:100120000908C039890003131F129F1200300317FA
:100130008800831287018801890183138030831628
:10014000031387008312A800003083168800C03094
:1001500083128B0483168C1630308312A700270875
:10016000303C031DB8288316091083120910F228A9
:100170008316091083120914AA012708A900033065
:10018000AC00E830AB0052207908AA007808A9003A
:100190007908AB00AB0AAB030319D228FF30AC00DF
:1001A0006720CB282908AC0067208316091083122A
:1001B0000910AA012708A9000330AC00E830AB0001
:1001C00052207908AA007808A9007908AB00AB0A88
:1001D000AB030319EF28FF30AC006720E82829089B
:0801E000AC006720AF286300AA
:04400E00E22FFF3F5F
:00000001FF
;PIC16F887
;CRC=DA57  CREATED="14-Dec-23 00:08"
