:1000000002308A00182A00004E244127A029D4205B
:10001000522A0000C422A025C8274910C427CE2395
:100020000001C4224D10D3204E105024C1260001DF
:10003000D3272026D527CE233A10201000012730C1
:10004000840083130008031932280630F800F701F2
:10005000F70B2828F80B27287B30F700F70B2E2802
:10006000800B252808002D18372808123828081674
:10007000831608128312AD183F288812402888166C
:100080008316881283122D19472808134828081749
:10009000831608138312AD194F2888135028881728
:1000A0008316881300008312881583168811023086
:1000B000F700F70B59285C2800008312881183167B
:1000C000881183120800AE018316081600308312CF
:1000D000081A0130AE048316881600308312881A7D
:1000E0000130F7000310F70D7708AE0483160817E8
:1000F00000308312081B0130F700F70DF70DFC30BC
:10010000F7057708AE048316881700308312881B22
:100110000130F700F70DF70DF70DF830F705770808
:10012000AE042E08F8000800831688118810081104
:1001300083128810831688100816881608178817E7
:100140008312081583160811000083128815831680
:1001500088110000831263207808AD00881183168F
:10016000881100008312881583168811B728B828D3
:100170000000831263207808AC0088118316881170
:10018000081288120813881383122D0EF700F0301E
:10019000F70577082C04F8007808AC00AC1FD228CB
:1001A00083169C28AA08031DD7288810D8288814ED
:1001B00083168810000083120811831608110000AE
:1001C000831288118316881183122B0EAC000F3016
:1001D000AC052C08AD0033202B080F39AC00AD0066
:1001E000332008002830A3000C30A4000130A50003
:1001F0000630A60088118316881183128810831692
:100200008810831208118316081108128812081327
:1002100088138811881008110F308312A7001F203F
:100220000130A2002208033C031C1E290330AD004C
:1002300033200530A7001F20A20A12290230AD008A
:1002400033200530A7001F20A2012208033C031C15
:10025000352923302207840083130008A700AA0150
:100260002708AB009420A20A25298A110A12352AF0
:10027000270B3B293E294030A8003F29A801013027
:100280002602A80728088038A900AA012908AB007F
:10029000942008002508073A031958290B3A031936
:1002A0005D29063A03196529023A03196B29702959
:1002B0000130A600A70038217529AA010130AB0042
:1002C00094200230A7001F2075290130A6000230BB
:1002D000A70038217529AA011030AB009420752998
:1002E0000130AA002508AB00942008000B08A200EA
:1002F0008B13831603178C170C1400000000831255
:100300000313A21B8B1703170C087F390319CA2983
:100310000313A20003170D080313A30003170F080C
:100320000313A4002208A5004A21230803178D0007
:100330000313240803178F0003130B08A5008B1366
:10034000831603178C170C1400000000831203138C
:10035000A51B8B1703170C0D0E0D7F390319CA2926
:100360000313A20003170D080313A30003170F08BC
:100370000313A4002208A5004A21230803178D00B7
:100380000313240803178F008D0A03198F0A031320
:1003900076290317031308002508F801240203181F
:1003A000D4292408F700E029F7010830A600A40D9D
:1003B000F70D250877020318F700F80DA60BD729CB
:1003C000080078082208A4006430A500CC21770832
:1003D000A20078083030031DF429A31CFB29A319BF
:1003E000FB29231A2030F729A31123122314F8071D
:1003F0007808A5004A212208A4000A30A500CC21D3
:100400007708A20078083030031D0C2AA319102A9F
:10041000231C102A231A2030F8077808A5004A2147
:100420003030A2072208A5004A218A110A12982A10
:1004300003081F398300A001211083160317090840
:10044000C039890003131F129F1200300317880060
:1004500083128701880189018313FF3083160313F8
:100460008600003088008312F2280130A600A70021
:100470003821043003178D0000308F0003137621DC
:100480000130A6000230A70038210A3003178D0082
:1004900000308F0003137621831606148312061C86
:1004A000532A21104C2A073090008E018F018E01B3
:1004B0000130A600A7003821113003178D0000304D
:1004C0008F00031376210130A6000230A7003821E7
:1004D000183003178D0000308F0003137621831628
:1004E000061483120618772A07309000211083160D
:1004F0008614831286187E2A900121142118982AC6
:100500000F08FA000E08F7000F087A02031D802A70
:100510007708A00020081D3C031C90010A30A600AB
:100520000230A70038212008A2000130A300E129F1
:040530006F2A6300CB
:04400E00E22FFF3F5F
:00000001FF
;PIC16F887
;CRC=8BBB  CREATED="17-Dec-23 15:12"
