:1000000000308A000428000003081F39830083168B
:100010000317871508300313990002309A00A630A1
:100020009800903083129800A001FF30A100831641
:1000300003170908C039890003131F129F120030EB
:100040000317880083128701880189018313803098
:100050008316031387008312A1000030F8000638CE
:1000600092007C308316920083122111210883169E
:100070008700831207110C30970083169B019C01A7
:1000800001309D0083129101950100308C1A0130DE
:10009000013C031D4F288C1E4B281A08A000200885
:1000A000523C031D67282111210883168700831203
:1000B00007110C30970083169B019C0101309D00B5
:1000C0003230831295001708CF3997006D28200829
:0E00D000533C031D6D28F03097054528630052
:04400E00E22FFF3F5F
:00000001FF
;PIC16F887
;CRC=411B  CREATED="17-Dec-23 16:35"
