:1000000000308A0073280000FF00030E8301A10066
:100010000A08A0008A010408A2007708A300780853
:10002000A4007908A5007A08A600831383128C30F7
:100030008400801E1D288C1A2E2822088400230884
:10004000F7002408F8002508F9002608FA0020081F
:100050008A00210E8300FF0E7F0E09008A110A120A
:1000600031288C1E31281A08A7003030A700A708B5
:1000700003193C28A8015B283130A700A708031901
:1000800044280130A8005B283230A700A7080319D4
:100090004C280230A8005B283330A700A7080319BA
:1000A00054280330A8005B285430A700A708031980
:1000B0005B280430A8008C128A110A121D282B30EC
:1000C000840083130008031972280630F800F70132
:1000D000F70B6828F80B67287B30F700F70B6E28C2
:1000E000800B6528080003081F3983008316031757
:1000F000871511300313990004309A00A630980038
:10010000903083129800FF30A90083160317090866
:10011000C039890003131F129F1200300317880093
:10012000831287018801890183130030831603132A
:100130008800803087008312A900C0308B048316AA
:100140008C1688013C30831288000830AA00FA30EF
:10015000AB005F20AA0BA7288316880183128801B1
:10016000A808031DB8288316880183128801EF2888
:10017000280BC02883168801013083128800EF28DD
:100180002808023C031DCA28831688010230831206
:100190008800EF282808033C031DD4288316880113
:1001A000043083128800EF282808043C031DEF2840
:1001B00083168801FF30831288000430AA00FA30C9
:1001C000AB005F20AA0BDF28831688018312880109
:1001D0000430AA00FA30AB005F20AA0BEA2883168D
:0401E000A1286300EF
:04400E00E22FFF3F5F
:00000001FF
;PIC16F887
;CRC=0016  CREATED="16-Dec-23 21:42"
