:1000000000308A0031280000A501A4012508230240
:10001000031C2E28031D10282208240203182E2852
:1000200000308C1A0130013C031D2A288C1E162832
:100030001A08A0002008523C031D222831300C1E53
:100040001F2899002008533C031D2A2832300C1E1B
:1000500027289900A40A0319A50A06288A110A125A
:100060007A2803081F398300831603178715083081
:100070000313990002309A00A63098009030831242
:100080009800A001FF30A100831603170908C039AA
:10009000890003131F129F12003003178800831278
:1000A0008701880189018313FF30831603138700BA
:1000B0008312A100831609148914091589150910E2
:1000C0008312091000308C1A0130013C031D6C288A
:1000D0008C1E68281A08A0002008523C031D7E28A8
:1000E000831609100130831289060330A300E8301B
:1000F000A200042831300C1E7B2899002008533CB4
:10010000031D8A28831609108312091032300C1E31
:080110008728990062286300B2
:04400E00E22FFF3F5F
:00000001FF
;PIC16F887
;CRC=026E  CREATED="06-Dec-23 18:00"
