:1000000000308A00372800000A108A100A1182077F
:10001000C034F934A434B034993492348234F8348E
:10002000803490342330840083130008031925287A
:100030000230F800F701F70B1B28F80B1A2897304D
:10004000F700F70B2128800B182808000830A402BD
:10005000031C36282430840083130310800C00080E
:100060000319362834280000800B332808000308C1
:100070001F398300713083168F000F088312A0018F
:100080002110FF30A200831603170908C039890028
:1000900003131F129F120030031788008312870179
:1000A000880189018313FF30831603138600003013
:1000B00087008312A200831687008312A200F80033
:1000C00006389200F930831692008312221122081A
:1000D00083168700831207110C30970083169B014B
:1000E0009C0101309D0083129101F030970535305D
:1000F000900083168614831286188D280A30A30078
:10010000122083168614831286188D280130A000D1
:10011000831686148312861C88288316061583127C
:100120000619A1280A30A30012208316061583128F
:100130000619A1280230A000831606158312061D99
:100140009C288316861583128619B5280A30A300C9
:1001500012208316861583128619B5280330A00055
:10016000831686158312861DB02820080420A3005C
:1001700083168801831223088800200BDF28F030C3
:100180009705221022088316870083120714013076
:10019000A30012200230A300F830A4002620A30BF5
:1001A000CC28221022088316870083120710023001
:1001B000A300F830A4002620A30BD9280429200886
:1001C000033C031DF828221122088316870083129E
:1001D00007110C30970083169B019C0101309D0094
:1001E000BB30831295001708CF39203897000429B7
:1001F000221022088316870083120710A2102208FB
:0C020000831687008312871079286300A2
:04400E00E52FFF3F5C
:00000001FF
;PIC16F887
;CRC=6FD8  CREATED="09-Dec-23 22:23"
