:1000000004308A00862C00004324B11E25183326B4
:1000100055005B245D005B265D004324B21E25185D
:10002000332655005B245D005B265D004324B21E31
:100030004F2346005B3C5D004324B11E4F23460026
:100040005B3C5D004324B11E4F2346005B3C5D00DA
:100050004324B21E4F2346005B3C5D0030308400D9
:1000600083130008031941280630F800F701F70B45
:100070003728F80B36287B30F700F70B3D28800B2C
:10008000342808003718462808124728081683160F
:1000900008128312B7184E2888124F288816831624
:1000A0008812831237195628081357280817831601
:1000B00008138312B7195E2888135F2888178316E0
:1000C0008813000083128815831688110230F70008
:1000D000F70B68286B28000083128811831688119B
:1000E00083120800B8018316081600308312081A1C
:1000F0000130B8048316881600308312881A013044
:10010000F7000310F70D7708B804831608170030BE
:100110008312081B0130F700F70DF70DFC30F705CF
:100120007708B8048316881700308312881B0130C3
:10013000F700F70DF70DF70DF830F7057708B8045D
:100140003808F800080083168811881008118312F7
:1001500088108316881008168816081788178312C7
:10016000081583160811000083128815831688115C
:100170000000831272207808B70088118316881156
:1001800000008312881583168811C628C72800002E
:10019000831272207808B60088118316881108121D
:1001A0008812081388138312370EF700F030F70512
:1001B00077083604F8007808B600B61FE1288316E1
:1001C000AB28B408031DE6288810E7288814831696
:1001D0008810000083120811831608110000831292
:1001E0008811831688118312350EB6000F30B605BC
:1001F0003608B700422035080F39B600B700422054
:1002000008002830A7000C30A8000130A9000630F3
:10021000AA0088118316881183128810831688100B
:100220008312081183160811081288120813881304
:100230008811881008110F308312B0002E20013071
:10024000A6002608033C031C2D290330B7004220DA
:100250000530B0002E20A60A21290230B700422026
:100260000530B0002E20A6012608033C031C4429BB
:1002700027302607840083130008AB00B4012B0845
:10028000B500A320A60A34298A110A12BB2C8E308D
:10029000F7002908F8002808F900FA01F808031DFA
:1002A0005B297908F800F9010830F702F808031D06
:1002B0005B29F70163290310F81B6229F90DF80D7A
:1002C000F7035B29F813080028080319292AB4004A
:1002D0002C080319292AB402031C73297F30B407A0
:1002E0000318292A79298130B402031C292A031909
:1002F000292A3408F700F801F901FA01B3012908A5
:10030000B200B2172A08B1002B08B0001930B400AF
:100310002F08B00203189C290130B10203189C2950
:10032000B20203189C29B30203189C29B30AB20A2B
:10033000B10A2F08B007CE292E08B1020318B72939
:100340000130B2020318B729B3020318B729B30A60
:10035000B20A2E08B1072F08B007031CCE29B10A34
:10036000031DCE29B20A031DCE29B30ACE292D08BA
:100370008038B2020318CD290130B3020318CD2909
:10038000B30A2D088038B2072E08B107031CAB2929
:10039000B20A031DAB29B30AAB297A14B40BD129D5
:1003A000DC290310B00DB10DB20DB30D0310FA0D21
:1003B000F90DF80DB50D8829351CE4290310F80C4A
:1003C000F90CFA0CB50CE729F7030319292AB51B18
:1003D000102A0310B00DB10DB20DB30D2F08B002ED
:1003E0000318FC290130B1020318FC29B2020318DA
:1003F000FC29B302031C1F2A2E08B1020318072A86
:100400000130B2020318072AB302031C1F2A2D0869
:100410008038B2020318102A0130B302031C1F2ACD
:10042000FA0A031D1F2AF90A031D1F2AF80A031DD1
:100430001F2AF70A0319292AF80CF90CFA0C2908C3
:10044000B4002D08B406B41F272AF8172D2AF81374
:100450002D2AF701F801F901FA0108008E30F700A2
:100460002608F7022708F9002808F800F917F70806
:100470000319452A0310F908031D412AF808031936
:10048000452AF90CF80CF70B3A2AA71F4C2AF80951
:10049000F909F80A0319F90A0800310B502A532AFE
:1004A0004030B200542AB20101303002B2073208A3
:1004B0008038B300B4013308B500A32008002F082A
:1004C000073A03196D2A0B3A0319722A063A0319DF
:1004D0007A2A023A0319802A852A0130B000B10035
:1004E0004D228A2AB4010130B500A3200230B000A9
:1004F0002E208A2A0130B0000230B1004D228A2A13
:10050000B4011030B500A3208A2A0130B4002F08AE
:10051000B500A32008000B08A7008B138316031750
:100520008C170C140000000083120313A71B8B17F9
:100530000318C22A03170C087F390313A7000317F7
:100540000D080313A80003170F080313A9002708B9
:10055000AF005F22280803178D0003132908031733
:100560008F0003130B08AA008B13831603178C1735
:100570000C140000000083120313AA1B8B17A60B98
:10058000C22AE12A03170C0D0E0D7F390313A700B1
:1005900003170D080313A80003170F080313A9007E
:1005A0002708AF005F22280803178D0003132908CE
:1005B00003178F008D0A03198F0A03100313A60B6C
:1005C0008B2A0800AE010408AD002E10831B2E14E8
:1005D000270EF038A900A907E23EAA00323EAC007F
:1005E00027080F39AA07AA07AC07E93EAB00AB07FB
:1005F000AB07260E0F39AB07AC07AB0DAC0DAC0942
:10060000AC0D26080F39AC07A90D0730A8000A3039
:10061000AC07AB03031C082BAB07AA03031C0C2B72
:10062000AA07A903031C102BA907A803031C142B5A
:1006300028308400831307302D052D1384072C30B8
:10064000040203192D170008F700031D2F2B2D1B83
:100650002F2B2D1A412BAD192F2B2030322BAD15FE
:100660002D123030F707A7010408A6002710831BBE
:1006700027147708AF005F22260884008313271809
:100680008317840A2D1F1F2B08000B08A6008B134D
:10069000831603178C170C14000000008312031339
:1006A000A61B8B1703170C087F390319992B03130B
:1006B000A60003170D080313A70003170F08031361
:1006C000A8002608AF005F22270803178D00031338
:1006D000280803178F0003130B08A9008B13831638
:1006E00003178C170C140000000083120313A91BBE
:1006F0008B1703170C0D0E0D7F390319992B03135C
:10070000A60003170D080313A70003170F08031310
:10071000A8002608AF005F22270803178D000313E7
:10072000280803178F008D0A03198F0A0313452B1E
:100730000317031308000430F8001F08C3397804B6
:100740009F002030F700F70BA32BA62B00009F146F
:100750009F18A82B1E08FA0083161E088312A600F5
:100760001E08A700A9002608A80047217A08AB00A8
:100770007908AA007808A9007708A800AA30AF0075
:10078000F130AE000230AD008030AC0064217A0858
:10079000A9007908A8007808A7007708A6002E22EB
:1007A0007908A2007808A1000130B000B1004D2204
:1007B000043003178D0000308F0003100430031342
:1007C000A6008B220A3084002208A7002108A60078
:1007D000E222DF30AF005F224330AF005F22A20889
:1007E000031DF62B2108313C0318032C0E30B000FA
:1007F0000130B1004D22093003178D0000308F0009
:10080000031345230F2C0E30B0000130B1004D22F0
:100810000B3003178D0000308F00031345230800B1
:100820000830F8001F08C33978049F002030F70013
:10083000F70B182C1B2C00009F149F181D2C1E0852
:10084000FA0083161E088312A6001E08A700A9003E
:100850002608A80047217A08AB007908AA00780882
:10086000A9007708A800AA30AF00F130AE0002302E
:10087000AD008030AC0064217A08A9007908A80096
:100880007808A7007708A6002E227908A400780827
:10089000A3000130B0000230B1004D220D3003172B
:1008A0008D0000308F00031004300313A6008B224C
:1008B0000A3084002408A7002308A600E222DF30C3
:1008C000AF005F224330AF005F22A408031D6C2CF1
:1008D0002308313C0318792C0E30B0000230B100EF
:1008E0004D22123003178D0000308F000313452373
:1008F000852C0E30B0000230B1004D2214300317A9
:100900008D0000308F0003134523080003081F39B2
:1009100083008316031787151130031399000430E1
:100920009A00A6309800903083129800A201A1018D
:10093000A401A301FF30A500831603170908C039DD
:10094000890003131F129F120030031788008312BF
:100950008701880189018313FF3083160313850003
:1009600000308600803087008312A5000030831697
:100970008800831201291F179F1783169F17831260
:100980001F14831603170908C039890003131F12A7
:100990009F120630031788000030831203138C1A4D
:1009A0000130013C031D882D8C1ED42C1A08A00098
:1009B0002008313C031D062D9B230130B00002307E
:1009C000B1004D22163003178D0000308F00031345
:1009D00045230E30B0000230B1004D221A3003170B
:1009E0008D0000308F0003134523A208031DFC2C4B
:1009F0002108313C0318012D8316091083120914B4
:100A0000052D8316091083120910882D2008323C09
:100A1000031D332D10240130B000B1004D221C30D5
:100A200003178D0000308F00031345230E30B000F4
:100A30000130B1004D22203003178D0000308F00AF
:100A400003134523A408031D292D2308313C031853
:100A50002E2D8316091083120914322D83160910C6
:100A600083120910882D2008333C031D512D9B2330
:100A70001024A208031D472D2108313C031C472DDB
:100A8000A408031D472D2308313C03184C2D831661
:100A9000091083120914502D8316091083120910AE
:100AA000882D2008343C031D882D0130B000B10092
:100AB0004D22223003178D0000308F000313452391
:100AC0000E30B0000130B1004D22263003178D00EA
:100AD00000308F00031345230130B0000230B10015
:100AE0004D22283003178D0000308F00031345235B
:100AF0000E30B0000230B1004D222C3003178D00B3
:100B000000308F0003134523831609108312091048
:080B100083160317CC2C6300CF
:04400E00E22FFF3F5F
:00000001FF
;PIC16F887
;CRC=E997  CREATED="13-Dec-23 17:26"
