:1000000003308A00362B0000D12A41104E24C92229
:100010005410CB180000D12A41104E24C92254108C
:100020004B190001D12A41104E24C9225410B22587
:10003000000120102010201020102010201000009F
:100040002E30840083130008031933280630F8008B
:10005000F701F70B2928F80B28287B30F700F70B5E
:100060002F28800B26280800351838280812392830
:100070000816831608128312B518402888124128E2
:1000800088168316881283123519482808134928C0
:100090000817831608138312B5195028881351289E
:1000A0008817831688130000831288158316881119
:1000B0000230F700F70B5A285D28000083128811E0
:1000C0008316881183120800B601831608160030C3
:1000D0008312081A0130B604831688160030831282
:1000E000881A0130F7000310F70D7708B60483165D
:1000F000081700308312081B0130F700F70DF70DC9
:10010000FC30F7057708B604831688170030831291
:10011000881B0130F700F70DF70DF70DF830F705E4
:100120007708B6043608F80008008316881188108E
:10013000081183128810831688100816881608176D
:10014000881783120815831608110000831288157A
:10015000831688110000831264207808B500881186
:100160008316881100008312881583168811B82819
:10017000B9280000831264207808B400881183161F
:10018000881108128812081388138312350EF7009D
:10019000F030F70577083404F8007808B400B41F8D
:1001A000D32883169D28B208031DD8288810D92883
:1001B0008814831688100000831208118316081112
:1001C000000083128811831688118312330EB40045
:1001D0000F30B4053408B500342033080F39B400AB
:1001E000B500342008002830A5000C30A6000130EE
:1001F000A7000630A8008811831688118312881082
:1002000083168810831208118316081108128812A9
:10021000081388138811881008110F308312AE005C
:1002200020200130A4002408033C031C1F290330B4
:10023000B50034200530AE002020A40A1329023076
:10024000B50034200530AE002020A4012408033C72
:10025000031C362925302407840083130008A900D5
:10026000B2012908B3009520A40A26298A110A128E
:10027000552B8E30F7002708F8002608F900FA0100
:10028000F808031D4D297908F800F9010830F70234
:10029000F808031D4D29F70155290310F81B5429AF
:1002A000F90DF80DF7034D29F81308002608031976
:1002B0001B2AB2002A0803191B2AB202031C652953
:1002C0007F30B20703181B2A6B298130B202031C4E
:1002D0001B2A03191B2A3208F700F801F901FA0159
:1002E000B1012708B000B0172808AF002908AE00F8
:1002F0001930B2002D08AE0203188E290130AF026A
:1003000003188E29B00203188E29B10203188E2912
:10031000B10AB00AAF0A2D08AE07C0292C08AF02F7
:100320000318A9290130B0020318A929B102031842
:10033000A929B10AB00A2C08AF072D08AE07031C83
:10034000C029AF0A031DC029B00A031DC029B10A84
:10035000C0292B088038B0020318BF290130B10230
:100360000318BF29B10A2B088038B0072C08AF0743
:10037000031C9D29B00A031D9D29B10A9D297A14E9
:10038000B20BC329CE290310AE0DAF0DB00DB10DC8
:100390000310FA0DF90DF80DB30D7A29331CD62987
:1003A0000310F80CF90CFA0CB30CD929F703031954
:1003B0001B2AB31B022A0310AE0DAF0DB00DB10DF9
:1003C0002D08AE020318EE290130AF020318EE2902
:1003D000B0020318EE29B102031C112A2C08AF0247
:1003E0000318F9290130B0020318F929B102031CDE
:1003F000112A2B088038B0020318022A0130B102FA
:10040000031C112AFA0A031D112AF90A031D112AD5
:10041000F80A031D112AF70A03191B2AF80CF90C14
:10042000FA0C2708B2002B08B206B21F192AF817D7
:100430001F2AF8131F2AF701F801F901FA01080031
:100440008E30F7002408F7022508F9002608F80086
:10045000F917F7080319372A0310F908031D332A7F
:10046000F8080319372AF90CF80CF70B2C2AA51FEA
:100470003E2AF809F909F80A0319F90A08002F0BAE
:10048000422A452A4030B000462AB00101302E02EF
:10049000B00730088038B100B2013108B3009520B0
:1004A00008002D08073A03195F2A0B3A0319642A3A
:1004B000063A03196C2A023A0319722A772A013084
:1004C000AE00AF003F227C2AB2010130B30095207C
:1004D0000230AE0020207C2A0130AE000230AF0096
:1004E0003F227C2AB2011030B30095207C2A0130D3
:1004F000B2002D08B30095200800AC010408AB0041
:100500002C10831B2C14250EF038A700A707E23E01
:10051000A800323EAA0025080F39A807A807AA0795
:10052000E93EA900A907A907240E0F39A907AA07C0
:10053000A90DAA0DAA09AA0D24080F39AA07A70D0B
:100540000730A6000A30AA07A903031CA32AA9079B
:10055000A803031CA72AA807A703031CAB2AA70705
:10056000A603031CAF2A26308400831307302B0513
:100570002B1384072A30040203192B170008F700F5
:10058000031DCA2A2B1BCA2A2B1ADC2AAB19CA2A1A
:100590002030CD2AAB152B123030F707A501040807
:1005A000A4002510831B25147708AD0051222408D0
:1005B0008400831325188317840A2B1FBA2A080086
:1005C0000B08A4008B13831603178C170C14000060
:1005D000000083120313A41B8B1703170C087F3929
:1005E0000319342B0313A40003170D080313A500EC
:1005F00003170F080313A6002408AD005122250895
:1006000003178D000313260803178F0003130B082D
:10061000A7008B13831603178C170C14000000001F
:1006200083120313A71B8B1703170C0D0E0D7F39B5
:100630000319342B0313A40003170D080313A5009B
:1006400003170F080313A6002408AD005122250844
:1006500003178D000313260803178F008D0A031953
:100660008F0A0313E02A03170313080003081F3936
:100670008300A101A001A301A201831603170908A9
:10068000C039890003131F129F120030031788001E
:1006900083128701880189018313003083160313B5
:1006A0008800FF3085008312F3281F179F178316D9
:1006B0009F1783121F14831603170908C039890076
:1006C00003131F129F120630031788000430F8002E
:1006D000831203131F08C33978049F000A30AE0049
:1006E00020209F149F18722B1E08FA0083161E08E4
:1006F0008312A4001E08A500A7002408A600392123
:100700007A08A9007908A8007808A7007708A60049
:10071000AA30AD00F130AC000230AB008030AA004E
:1007200056217A08A7007908A6007808A50077085E
:10073000A40020227908A1007808A0000830F80061
:100740001F08C33978049F000A30AE0020209F1490
:100750009F18A82B1E08FA0083161E088312A400F7
:100760001E08A500A7002408A60039217A08A900C0
:100770007908A8007808A7007708A600AA30AD007D
:10078000F130AC000230AB008030AA0056217A086C
:10079000A7007908A6007808A5007708A400202201
:1007A0007908A3007808A2000130AE00AF003F2214
:1007B0005430AD0051223130AD0051223D30AD00FA
:1007C00051220B3084002108A5002008A4007D22BE
:1007D000DF30AD0051224330AD0051220A30AE006F
:1007E0000130AF003F225430AD0051223230AD0015
:1007F00051223D30AD0051220B3084002308A5006A
:100800002208A4007D22DF30AD0051224330AD002C
:100810005122A108031D102C20083C3C0318242C55
:10082000A308031D242C22083C3C031C242C033069
:10083000AE000230AF003F22043003178D000030BD
:100840008F000313E022662CA308031D2B2C220823
:100850003C3C03183F2CA108031D3F2C20083C3CC6
:10086000031C3F2C0330AE000230AF003F220B30A0
:1008700003178D0000308F000313E022662CA308BD
:10088000031D462C22083C3C03185A2CA108031DCA
:100890004D2C20083C3C03185A2C0330AE0002308B
:1008A000AF003F22123003178D0000308F0003137A
:1008B000E022662C0330AE000230AF003F22193038
:1008C00003178D0000308F000313E02283160317F7
:0408D000662B630030
:04400E00E22FFF3F5F
:00000001FF
;PIC16F887
;CRC=03CC  CREATED="17-Dec-23 02:18"
