:1000000000308A000428000003081F39830083168B
:100010000317871581300313990000309A00A6302A
:100020009800903083129800FF30A00083160317C9
:100030000908C039890003131F129F1200300317EB
:10004000880083128701880189018313FF3083169A
:1000500003138600803087008312A00083160614E5
:1000600083120618372800300C1E34289900831696
:10007000861483128618402801300C1E3D289900F2
:100080008316061583120619492802300C1E4628CD
:1000900099008316861583128619522803300C1E88
:1000A0004F289900831606168312061A5B2804301F
:0A00B0000C1E582899002E2863004A
:04400E00E22FFF3F5F
:00000001FF
;PIC16F887
;CRC=A98D  CREATED="18-Dec-23 02:08"
