:1000000000308A0050280000FF00030E8301A10089
:100010000A08A0008A010408A2007708A300780853
:10002000A4007908A5007A08A600831383128C30F7
:100030008400801E1D288C1A2E2822088400230884
:10004000F7002408F8002508F9002608FA0020081F
:100050008A00210E8300FF0E7F0E09008A110A120A
:100060003F280A108A100A118207C034F934A434D8
:10007000B034993492348234F834803490348C1E05
:100080003F281A08A70027083120A90083168801F5
:100090008312290888008C128C128A110A121D28DA
:1000A00003081F3983008316031787158130031354
:1000B000990000309A00A630980090308312980082
:1000C000FF30A800831603170908C03989000313FD
:1000D0001F129F12003003178800831287018801C6
:1000E0008901831380308316031387008312A800CD
:1000F000003083168800C03083128B0483168C1660
:100100000030F8000638831292007C30831692008B
:1001100083122811280883168700831207110C30D8
:10012000970083169B019C0101309D008312910171
:100130009501A708031D9E289501C628270BA7280F
:100140001F3095001708CF3910389700C6282708A8
:10015000023C031DB2283E3095001708CF392038E5
:100160009700C6282708033C031DBD285D30950075
:100170001708CF3930389700C6282708043C031DDC
:10018000C6287D3095001708CF399700992863005D
:04400E00E22FFF3F5F
:00000001FF
;PIC16F887
;CRC=8071  CREATED="18-Dec-23 04:25"
