:1000000000308A000428000003081F398300713083
:1000100083168F000F08031787110C300313990004
:10002000A2309800903083129800A001FF30A10008
:10003000831603170908C039890003131F129F1282
:100040000030031788008312870188018901831318
:1000500000308316031388000910891009118911D3
:10006000803087008312A10035309000831609107C
:100070008312091000308C1A0130013C031D442802
:100080008C1E40281A08A0002008523C031D682836
:1000900053300C1E49289900831608118312081545
:1000A0008E01FE308F000C308E000C1C55288316FC
:1000B0000811831208110C108E01FE308F000C30D5
:1000C0008E000C1C612883160910831209147828ED
:1000D0002008533C031D7828831608118312081149
:1000E000831609108312091054300C1E75289900CC
:0400F0003A28630047
:04400E00E52FFF3F5C
:00000001FF
;PIC16F887
;CRC=A4AD  CREATED="17-Dec-23 17:51"
