:1000000000308A00412800000A108A100A11820775
:10001000613462346334643465346634673468341C
:1000200069346A34223084008313000803192528B8
:100030000630F800F701F70B1B28F80B1A287B3065
:10004000F700F70B2128800B18288A110A1276284E
:10005000800803193E28A4010408A3002410831B70
:10006000241400080C1E32289900230884008313EE
:1000700024188317840A0319850A28288A110A126A
:10008000892803081F398300831603178715223038
:100090000313990008309A00A6309800903083121C
:1000A0009800FF30A000A100831603170908C0398B
:1000B000890003131F129F12003003178800831258
:1000C0008701880189018313831603130914891496
:1000D00009158915803087008312A1008316091441
:1000E000831209188E281430A200122883160914CE
:1000F000831209188928A00A200804200C1E7E28D3
:10010000990020080420A200840083132318831779
:100110002828831609148312091C8928A01B9628F5
:100120002008083C03189628FF30A0006E286300C2
:04400E00E22FFF3F5F
:00000001FF
;PIC16F887
;CRC=7EDE  CREATED="02-Jan-24 23:33"
