:1000000000308A002D28000023308400831300086C
:10001000031917280230F800F701F70B0D28F80B29
:100020000C289730F700F70B1328800B0A280800DC
:100030001030A900F701FA01A60CA50C031C262814
:100040002708F7070318FA0A2808FA07FA0CF70C2A
:10005000F90CF80CA90B1C28080003081F398300B1
:10006000713083168F000F088312A0012110FF301A
:10007000A200831603170908C039890003131F1251
:100080009F120030031788008312870188018901BD
:100090008313FF308316031386000030870083121A
:1000A000A200F800063892007C308316920083127A
:1000B0002211220883168700831207110C30970043
:1000C00083169B019C0101309D008312A21022081F
:1000D00083168700831287100C309D0091019501D3
:1000E0001708CF3997009B011D08CF399D00831653
:1000F0000614831206188B280A30A30004208316E6
:100100000614831206188B280530A00783160614E0
:100110008312061C862820080A3C031CA0018316B3
:10012000861483128618A3280A30A300042083169D
:10013000861483128618A3280130A106831686141C
:100140008312861C9E2821182F29A21022088316AC
:1001500087008312871022112208831687008312DA
:1001600007110C30970083169B019C0101309D0004
:100170000612831206168316861283128612A008B0
:10018000031DDD28A4012008A300A40CA30CA40CCB
:10019000A30CA40C23089500A40C240C3039F70000
:1001A0001708CF39770497008316861183128615B6
:1001B00083160611831206112E292008053C031D03
:1001C0000829A4012008A3002408A6002008A500EF
:1001D000A8013230A70018207908A4007808A300ED
:1001E000A40CA30CA40CA30CA40C23089500A40C31
:1001F000240C3039F7001708CF397704970083169D
:1002000086118312861183160611831206152E2974
:10021000A4012008A3002408A6002008A500A80126
:100220003230A70018207908A4007808A300A40C95
:10023000A30CA40CA30CA40C23089500A40C240C60
:100240003039F7001708CF397704970083168611E5
:10025000831286118316061183120615AC29A2108B
:1002600022088316870083128714831606128312CE
:1002700006128316861283128616A008031D5B29B8
:10028000A4012008A300A40CA30CA40CA30CA40C90
:1002900023089500A40C240C3039F7001708CF3937
:1002A000770497008316861183128615831606112C
:1002B00083120611AC292008053C031D8629A401E0
:1002C0002008A3002408A6002008A500A8013230B9
:1002D000A70018207908A4007808A300A40CA30C98
:1002E000A40CA30CA40C23089500A40C240C3039F6
:1002F000F7001708CF397704970083168611831209
:1003000086118316061183120615AC29A401200854
:10031000A3002408A6002008A500A8013230A700E9
:1003200018207908A4007808A300A40CA30CA40C3E
:10033000A30CA40C23089500A40C240C3039F7005E
:100340001708CF3977049700831686118312861118
:0C0350008316061183120615772863003F
:04400E00E52FFF3F5C
:00000001FF
;PIC16F887
;CRC=30E6  CREATED="19-Dec-23 18:12"
