:1000000000308A00172800002208FA00210803198E
:10001000A203A1037A04031916280C1C0D288E01D3
:10002000FD308F008F308E000C100428080003086C
:100030001F398300831603170908C0398900031389
:100040001F129F1200300317880083128701880156
:10005000890183138316031309108910091189116B
:100060002530831290008E01FD308F008F308E007E
:10007000A0012008033C031C5728A008031D4928A1
:100080008316091083120914A2010130A100042073
:1000900055282008033C031C552883160910831299
:1000A0000910A2010130A1000420A00A3928382833
:0200B0006300EB
:04400E00E22FFF3F5F
:00000001FF
;PIC16F887
;CRC=6852  CREATED="02-Jan-24 21:42"
