:1000000003308A00D02B0000C4272027C824452AAB
:1000100020224F002E3084008313000803191D286E
:100020000630F800F701F70B1328F80B12287B3085
:10003000F700F70B1928800B102808003518222824
:10004000081223280816831608128312B5182A28C6
:1000500088122B28881683168812831235193228A5
:10006000081333280817831608138312B5193A2882
:1000700088133B28881783168813000083120914FD
:10008000831609100230F700F70B442847280000B8
:10009000831209108316091083120800B601831613
:1000A000081600308312081A0130B6048316881629
:1000B00000308312881A0130F7000310F70D77081B
:1000C000B6048316081700308312081B0130F700AE
:1000D000F70DF70DFC30F7057708B604831688177F
:1000E00000308312881B0130F700F70DF70DF70D74
:1000F000F830F7057708B6043608F80008008316CC
:1001000009108910091183128910831689100816A5
:10011000881608178817831209158316091100001D
:100120008312091483160910000083124E207808E8
:10013000B5000910831609100000831209148316F4
:100140000910A228A328000083124E207808B400CA
:1001500009108316091008128812081388138312D5
:10016000350EF700F030F70577083404F80078080A
:10017000B400B41FBD2883168728B208031DC22807
:100180008910C3288914831689100000831209116D
:1001900083160911000083120910831609108312B7
:1001A000330EB4000F30B4053408B5001E203308F8
:1001B0000F39B400B5001E2008002830A5000C300F
:1001C000A6000130A7000630A80009108316091008
:1001D000831289108316891083120911831609115D
:1001E00008128812081388130910891009110F309A
:1001F0008312AE000A200130A4002408033C031C33
:1002000009290330B5001E200530AE000A20A40ADB
:10021000FD280230B5001E200530AE000A20A401E2
:100220002408033C031C2029253024078400831361
:100230000008A900B2012908B3007F20A40A1029F0
:100240008A110A12062C2F0B262929294030B000CA
:100250002A29B00101302E02B00730088038B100E1
:10026000B2013108B3007F2008002D08073A0319B6
:1002700043290B3A03194829063A03195029023A2F
:10028000031956295B290130AE00AF0023216029F4
:10029000B2010130B3007F200230AE000A20602995
:1002A0000130AE000230AF0023216029B2011030CE
:1002B000B3007F2060290130B2002D08B3007F20F9
:1002C00008000B08A4008B13831603178C170C145B
:1002D0000000000083120313A41B8B1703170C08E4
:1002E0007F390319B5290313A40003170D0803135D
:1002F000A50003170F080313A6002408AD0035213D
:10030000250803178D000313260803178F00031316
:100310000B08A7008B13831603178C170C1400000F
:10032000000083120313A71B8B1703170C0D0E0D70
:100330007F390319B5290313A40003170D0803130C
:10034000A50003170F080313A6002408AD003521EC
:10035000250803178D000313260803178F008D0A45
:1003600003198F0A03136129031703138A110A1251
:10037000122C8E30F7002708F8002608F900FA0141
:10038000F808031DCD297908F800F9010830F702B3
:10039000F808031DCD29F701D5290310F81BD4292E
:1003A000F90DF80DF703CD29F813080026080319F5
:1003B0009B2AB2002A0803199B2AB202031CE529D2
:1003C0007F30B20703189B2AEB298130B202031C4D
:1003D0009B2A03199B2A3208F700F801F901FA0158
:1003E000B1012708B000B0172808AF002908AE00F7
:1003F0001930B2002D08AE0203180E2A0130AF02E8
:1004000003180E2AB00203180E2AB10203180E2A8E
:10041000B10AB00AAF0A2D08AE07402A2C08AF0275
:100420000318292A0130B0020318292AB10203183F
:10043000292AB10AB00A2C08AF072D08AE07031C01
:10044000402AAF0A031D402AB00A031D402AB10A00
:10045000402A2B088038B00203183F2A0130B1022D
:1004600003183F2AB10A2B088038B0072C08AF07C1
:10047000031C1D2AB00A031D1D2AB10A1D2A7A1465
:10048000B20B432A4E2A0310AE0DAF0DB00DB10DC5
:100490000310FA0DF90DF80DB30DFA29331C562A85
:1004A0000310F80CF90CFA0CB30C592AF7030319D2
:1004B0009B2AB31B822A0310AE0DAF0DB00DB10DF8
:1004C0002D08AE0203186E2A0130AF0203186E2AFF
:1004D000B00203186E2AB102031C912A2C08AF0245
:1004E0000318792A0130B0020318792AB102031CDB
:1004F000912A2B088038B0020318822A0130B102F9
:10050000031C912AFA0A031D912AF90A031D912A54
:10051000F80A031D912AF70A03199B2AF80CF90C13
:10052000FA0C2708B2002B08B206B21F992AF81756
:100530009F2AF8139F2AF701F801F901FA01080030
:100540008E30F7002408F7022508F9002608F80085
:10055000F917F7080319B72A0310F908031DB32A7E
:10056000F8080319B72AF90CF80CF70BAC2AA51FE9
:10057000BE2AF809F909F80A0319F90A0800AC01BA
:100580000408AB002C10831B2C14250EF038A70098
:10059000A707E23EA800323EAA0025080F39A807A7
:1005A000A807AA07E93EA900A907A907240E0F3941
:1005B000A907AA07A90DAA0DAA09AA0D24080F398F
:1005C000AA07A70D0730A6000A30AA07A903031C33
:1005D000E52AA907A803031CE92AA807A703031C07
:1005E000ED2AA707A603031CF12A263084008313F3
:1005F00007302B052B1384072A30040203192B170D
:100600000008F700031D0C2B2B1B0C2B2B1A1E2B89
:10061000AB190C2B20300F2BAB152B123030F707FA
:10062000A5010408A4002510831B25147708AD003C
:10063000352124088400831325188317840A2B1F6F
:10064000FC2A08000430F8001F08C33978049F0012
:100650002030F700F70B2A2B2D2B00009F149F183A
:100660002F2B1E08FA0083161E088312A4001E08F2
:10067000A500A7002408A600B9217A08A9007908D6
:10068000A8007808A7007708A6007130AD003D30BB
:10069000AC005A30AB008030AA00D6217A08A700FF
:1006A0007908A6007808A5007708A400A022790898
:1006B000A1007808A0000130AE000230AF00232175
:1006C0004B30AD0035213130AD0035213D30AD002E
:1006D00035210B3084002108A5002008A400BF228A
:1006E000DF30AD0035214330AD0035218A110A12CB
:1006F000132C0830F8001F08C33978049F002030FD
:10070000F700F70B812B842B00009F149F18862B7A
:100710001E08FA0083161E088312A4001E08A500F6
:10072000A7002408A600B9217A08A9007908A80022
:100730007808A7007708A6007130AD003D30AC0006
:100740005A30AB008030AA00D6217A08A700790879
:10075000A6007808A5007708A400A0227908A300C5
:100760007808A2000A30AE000230AF0023214B30DF
:10077000AD0035213230AD0035213D30AD003521A1
:100780000B3084002308A5002208A400BF22DF301C
:10079000AD0035214330AD0035218A110A12142CE9
:1007A00003081F398300A101A001A301A201831640
:1007B00003170908C039890003131F129F12003064
:1007C00003178800831287018801890183130E3083
:1007D0008316031385000030880009108910091161
:1007E000891183121F179F1783169F1783121F14D7
:1007F000831603170908C039890003131F169F12B7
:1008000006300317880083120313DD280330AE007F
:100810000130AF002321043003178D0000308F001A
:0C08200003136129222B792B122C63009A
:04400E00E22FFF3F5F
:00000001FF
;PIC16F887
;CRC=E0A4  CREATED="02-Jan-24 22:27"
