:1000000000308A00262800000A108A100A11820790
:10001000C034F934A434B034993492348234F8348E
:100020008034903424308400831300080319252879
:100030000230F800F701F70B1B28F80B1A2897304D
:10004000F700F70B2128800B1828080003081F3938
:100050008300713083168F000F0803178715A030B7
:100060000313990001309A00A63098009030831253
:100070009800A001A101A201FF30A300831603177D
:100080000908C039890003131F129F12003003179B
:100090008800831287018801890183138316031363
:1000A00009148914091189110030860088008030F4
:1000B00087008312A30000308C1A0130013C031D1D
:1000C00065288C1E61281A08A0002008533C0319DB
:1000D000A9282008523C031DA9288316091483125D
:1000E00009188B281430A4001220831609148312D7
:1000F00009188B28A10A831609148312091C7B286E
:100100002108093C031CA10147300C1E85289900D9
:100110000130A40012208316891483128918A9289B
:100120001430A40012208316891483128918A92878
:10013000A20A831689148312891C99282208093C73
:10014000031CA20142300C1EA32899000130A40018
:10015000122021080420A40083168601831224089B
:10016000860022080420A400831688018312240834
:0601700088005B2863001B
:04400E00E52FFF3F5C
:00000001FF
;PIC16F887
;CRC=B9F4  CREATED="15-Dec-23 14:05"
