:1000000001308A00CA290000C42AD42CA021D92199
:10001000CC220000532A412AD5290001B019B01280
:100020000001B01BB01200013118B0120001532AB8
:100030004F280001D22A4E1000002830840083137C
:100040000008031930280630F800F701F70B2628BE
:10005000F80B25287B30F700F70B2C28800B232882
:1000600008002E183528081236280816831608129C
:100070008312AE183D2888123E28881683168812EF
:1000800083122E19452808134628081783160813CB
:100090008312AE194D2888134E28881783168813AB
:1000A000000083128815831688110230F700F70BC1
:1000B00057285A280000831288118316881183124A
:1000C0000800AF018316081600308312081A0130A9
:1000D000AF048316881600308312881A0130F700A7
:1000E0000310F70D7708AF0483160817003083124A
:1000F000081B0130F700F70DF70DFC30F705770806
:10010000AF048316881700308312881B0130F70074
:10011000F70DF70DF70DF830F7057708AF042F0846
:10012000F8000800831688118810081183128810BF
:100130008316881008168816081788178312081562
:100140008316081100008312881583168811000099
:10015000831261207808AE00881183168811000090
:100160008312881583168811B528B62800008312DB
:1001700061207808AD008811831688110812881252
:100180000813881383122E0EF700F030F705770856
:100190002D04F8007808AD00AD1FD02883169A28EA
:1001A000AB08031DD5288810D6288814831688101C
:1001B00000008312081183160811000083128811B1
:1001C0008316881183122C0EAD000F30AD052D085B
:1001D000AE0031202C080F39AD00AE0031200800F0
:1001E0002830A4000C30A5000130A6000630A7007E
:1001F0008811831688118312881083168810831241
:100200000811831608110812881208138813881120
:10021000881008110F308312A8001D200130A300A0
:100220002308033C031C1C290330AE003120053099
:10023000A8001D20A30A10290230AE00312005308D
:10024000A8001D20A3012308033C031C33292430EC
:100250002307840083130008A800AB012808AC0022
:100260009220A30A23298A110A12ED29280B392981
:100270003C294030A9003D29A90101302702A907E6
:1002800029088038AA00AB012A08AC009220080097
:100290002608073A031956290B3A03195B29063A2F
:1002A00003196329023A031969296E290130A7004D
:1002B000A80036217329AB010130AC009220023036
:1002C000A8001D2073290130A7000230A8003621A4
:1002D0007329AB011030AC00922073290130AB00C0
:1002E0002608AC00922008000B08A3008B1383168D
:1002F00003178C170C140000000083120313A31BB8
:100300008B1703170C087F390319C8290313A3009F
:1003100003170D080313A40003170F080313A50008
:100320002308A6004821240803178D00031325087D
:1003300003178F0003130B08A6008B1383160317F4
:100340008C170C140000000083120313A61B8B17DC
:1003500003170C0D0E0D7F390319C8290313A300D1
:1003600003170D080313A40003170F080313A500B8
:100370002308A6004821240803178D00031325082D
:1003800003178F008D0A03198F0A031374290317AB
:100390000313080003081F398300A0012110FF3058
:1003A000A200831603170908C039890003131F121E
:1003B0009F1200300317880083128701880189018A
:1003C0008313FF30831603138600003087008312E7
:1003D000A200831688008312F0280030F800063847
:1003E00092007C3083169200831222112208831619
:1003F0008700831207110C30970083169B019C0124
:1004000001309D00831291019501A700A8003621BB
:10041000043003178D0000308F0003137421013066
:10042000A7000230A80036210A3003178D000030E3
:100430008F000313742183168614831286182E2AC4
:100440000A30A8001D2083168614831286182E2ACF
:10045000A00A831686148312861C292A2008023CCF
:10046000031CA001A008031D412A0C30A700013085
:10047000A80036210E3003178D0000308F000313C3
:100480007421200B4F2A0C30A7000130A800362120
:10049000113003178D0000308F00031374212008E2
:1004A000023C031D5F2A0C30A7000130A800362152
:1004B000143003178D0000308F000313742183164E
:1004C000061583120619732A0A30A8001D20831608
:1004D000061583120619732A0130A1068316061524
:1004E0008312061D6E2A2118842AF03097050C30DD
:1004F000A7000230A8003621173003178D00003006
:100500008F0003137421B82A0C30A7000230A80012
:1005100036211A3003178D0000308F000313742129
:100520002211220883168700831207110C309700CE
:1005300083169B019C0101309D008312A008031DBE
:10054000A72A253095001708CF3920389700200BAF
:10055000AF2A573095001708CF3920389700200868
:10056000023C031DB82A7D3095001708CF3997004B
:040570001B2A6300DF
:04400E00E22FFF3F5F
:00000001FF
;PIC16F887
;CRC=8F80  CREATED="16-Dec-23 02:58"
