:1000000000308A00AA2800002C08F8012B020318EF
:100010000C282B08F7001828F7010830AD00AB0DAD
:10002000F70D2C0877020318F700F80DAD0B0F2819
:10003000080078082908AB006430AC000420770879
:10004000A90078083030031D2C28AA1C3428AA19CE
:1000500034282A1A20302F28AA112A122A14F80725
:1000600078080C1E312899002908AB000A30AC0032
:1000700004207708A90078083030031D4528AA1904
:100080004A282A1C4A282A1A2030F80778080C1E09
:10009000472899003030A90729080C1E4D289900DF
:1000A0000800B1010408B0003110831B31142A0E7E
:1000B000F038AC00AC07E23EAD00323EAF002A089B
:1000C0000F39AD07AD07AF07E93EAE00AE07AE078B
:1000D000290E0F39AE07AF07AE0DAF0DAF09AF0D4B
:1000E00029080F39AF07AC0D0730AB000A30AF0756
:1000F000AE03031C7728AE07AD03031C7B28AD07B6
:10010000AC03031C7F28AC07AB03031C83282B30F4
:100110008400831307303005301384072F30040226
:10012000031930170008F700031D9E28301B9E2876
:10013000301AA628B0199E282030A128B0153012F8
:100140003030F70777080C1EA3289900840A301F67
:100150008E28080003081F398300831603178715AC
:1001600022300313990008309A00A630980090308E
:1001700083129800A001A101A301A201A501A4017D
:100180002710FF30A800831603170908C03989001B
:1001900003131F129F120030031788008312870178
:1001A000880189018313803083160313870083122B
:1001B000A8001030831685000108C739283881004F
:1001C0008312810150300C1EE32899003D300C1E33
:1001D000E72899002008A9000130AA0019202C3036
:1001E0000C1EF028990042300C1EF42899003D3076
:1001F0000C1EF8289900083084002308AA00220861
:10020000A900512000308C1A0130013C031D1C292B
:100210008C1E08291A08A6002608313C031D18293F
:10022000271483160108C739283881001D29831235
:100230002608303C0319271083168312271C2C290B
:100240000108A0002008183C03182C290130A00048
:100250008100A20A0319A30A271830292008810067
:1002600020082102031D3C2922082402031D3C29E9
:1002700023082502031962292008A1002308A500EC
:100280002208A40050300C1E432999003D300C1E5A
:10029000472999002008A9000130AA0019202C3014
:1002A0000C1E5029990042300C1E542999003D30F3
:1002B0000C1E58299900083084002308AA0022083F
:0802C000A9005120022963008E
:04400E00E22FFF3F5F
:00000001FF
;PIC16F887
;CRC=AB47  CREATED="15-Dec-23 23:34"
