:1000000000308A001828000026308400831300087E
:10001000031917280630F800F701F70B0D28F80B25
:100020000C287B30F700F70B1328800B0A280800F8
:1000300003081F3983008316031787152230031323
:10004000990008309A00A6309800903083129800EA
:10005000A0010B30A1000C30A2001530A300163017
:10006000A400FF30A500831603170908C0398900D2
:1000700003131F129F120030031788008312870199
:1000800088018901831300308316031386008F30A3
:1000900087008312A5000030831688008601BF30D8
:1000A0008312860083168801831288002514250890
:1000B000831687008312071877281430A6000420BF
:1000C000251425088316870083120718772825141E
:1000D0002508831687008312071C6728831686016C
:1000E000F9308312860021080C1E74289900A5148B
:1000F0002508831687008312871898281430A600D5
:100100000420A514250883168700831287189828D1
:10011000A5142508831687008312871C8828831658
:100120008601A4308312860022080C1E95289900AF
:10013000251525088316870083120719B92814305E
:10014000A6000420251525088316870083120719A9
:10015000B92825152508831687008312071DA928AD
:1001600083168801F9308312880023080C1EB628F4
:100170009900A51525088316870083128719DA28A8
:100180001430A6000420A5152508831687008312C5
:100190008719DA28A5152508831687008312871D7D
:1001A000CA2883168801A4308312880024080C1EF4
:1001B000D728990000308C1A0130013C031DE42837
:1001C0008C1EE0281A08A0002008523C031DF128CC
:1001D00083168601BF30831286008316880183123E
:0601E000880056286300B0
:04400E00E22FFF3F5F
:00000001FF
;PIC16F887
;CRC=431C  CREATED="16-Dec-23 17:43"
